:100000000C942A000C9447000C9447000C94470071
:100010000C9447000C9447000C9447000C94470044
:100020000C9476010C9447000C9447000C94470004
:100030000C9447000C9447000C9447000C94470024
:100040000C9447000C9447000C9447000C94470014
:100050000C94470011241FBECFE5D4E0DEBFCDBF16
:1000600011E0A0E6B0E0E0E0F6E102C005900D92FC
:10007000AC38B107D9F721E0ACE8B1E001C01D927E
:10008000A639B207E1F70E94F2040C94FE0A0C9420
:100090000000882311F0929A089592980895882379
:1000A00011F0939A0895939808952F923F924F924A
:1000B0005F926F927F928F929F92AF92BF92CF92F8
:1000C000DF92EF92FF920F931F93CF93DF9300D0B5
:1000D00000D000D0CDB7DEB76B017C015C834B83D1
:1000E0003E832D83611571058105910539F480E307
:1000F000F9018083118281E090E090C097FF0DC0EC
:10010000F094E094D094C094C11CD11CE11CF11C6B
:1001100021E030E03A83298302C01A8219828D815E
:100120009E810C96ED81FE811192E817F907E1F7A7
:1001300009E010E0212C312C812C8AEC982E8AE9E0
:10014000A82E8BE3B82E9AE0492E512C612C712CED
:10015000C701B601A50194010E945909E22FA22FFF
:10016000B32FA50194010E947809C61AD70AE80A9C
:10017000F90AD1011996A01BB10B4D815E81A40F24
:10018000B51FE05DEC93C501B401A30192010E948B
:10019000590949015A018B819C810817190779F483
:1001A0000115110561F09FEF291A390AF101E01BD1
:1001B000F10B2D813E81E20FF31F3EE231870150AA
:1001C000110930F6ED81FE8130E2CF014D815E8173
:1001D000841B950B2081203311F43193F6CFE981F4
:1001E000FA81EF2B31F00197FA01E80FF91F2DE2A8
:1001F0002083ED81FE819F014D815E81241B350BA3
:10020000DF01A80FB91F4C91442311F04193F3CFA4
:10021000ED81FE81E20FF31F1082C90126960FB611
:10022000F894DEBF0FBECDBFDF91CF911F910F912C
:10023000FF90EF90DF90CF90BF90AF909F908F9006
:100240007F906F905F904F903F902F900895FC01AA
:100250009F01281B390B41914111FACFC901089523
:100260000F931F93CF93DF93CDB7DEB72E970FB6C3
:10027000F894DEBF0FBECDBFBC019EE0E6E6F0E025
:10028000DE01119601900D929A95E1F7FE013196EB
:1002900080E090E040E050E0A1E0B0E09D01042E5D
:1002A00002C0220F331F0A94E2F7890106231723A5
:1002B00035B3012B41F02095232325BB20813181CB
:1002C000820F931F02C0232B25BB4F5F5F4F3296D7
:1002D0004730510519F72E960FB6F894DEBF0FBEC2
:1002E000CDBFDF91CF911F910F9108951F920F9273
:1002F0000FB60F9211248F939F93AF93BF9380916A
:100300008E0190918F01A0919001B0919101019681
:10031000A11DB11D80938E0190938F01A093900138
:10032000B09391018CE791EE9DBD8CBDBF91AF91D3
:100330009F918F910F900FBE0F901F90189520E006
:1003400030E0281739074CF448E454E000004150ED
:100350005109E1F72F5F3F4FF4CF0895CF93DF931B
:10036000D82FC62F80E00E944F00D11104C080E03A
:100370000E94490001C0929A84E090E00E949F018F
:10038000939A24E030E080E190E06C2F70E0AC01C3
:1003900046235723452B19F042B3482B04C042B3E0
:1003A000582F5095452342BB880F991F2150310982
:1003B00071F780E00E944F00939ACF7080E1C89F50
:1003C000B001112424E030E080E190E0AC0146234C
:1003D0005723452B19F042B3482B04C042B3582F82
:1003E0005095452342BB880F991F2150310971F761
:1003F00080E0DF91CF910C944F00CF93DF931F9259
:10040000CDB7DEB790E4899F600D1124605880E07D
:1004100049830E94AE014981642F81E00F90DF91F2
:10042000CF910C94AE01EF92FF921F93CF93DF9385
:100430007C01C42FD52F162F141B9C2F910F49918F
:10044000442331F0692F70E0C7010E94FD01F5CF10
:10045000DF91CF911F91FF90EF9008954F925F929F
:100460006F927F92AF92BF92CF92DF92EF92FF9204
:100470000F931F93CF93DF937C016B0129013A0106
:10048000580180E290E00E94BC09EC010097B1F0B5
:1004900000E110E09C01A501C301B2010E945500DA
:1004A000AE01B601C7010E941302CE010E942701CE
:1004B0008C01CE010E94510AC80102C080E090E088
:1004C000DF91CF911F910F91FF90EF90DF90CF9030
:1004D000BF90AF907F906F905F904F9008950F9373
:1004E0001F93CF93DF9360918C0170918D0140E950
:1004F00051E0649F9001659F300D749F300D112471
:10050000EC01C20FD31F4DE451E060E070E080E0E9
:1005100090E00E9413029E01DD0F440B550B02E098
:1005200010E060E070E080E090E00E942E0248EF72
:1005300050E0BC0180E090E0DF91CF911F910F91DE
:100540000C9413024BEF50E06EE070E081E090E01D
:100550000C941302892B11F00C94A2024EEF50E080
:100560006EE070E081E090E00C941302CF93DF9393
:10057000CDB7DEB760970FB6F894DEBF0FBECDBF24
:1005800020E1E4E7F0E0DE01119601900D922A955A
:10059000E1F7880F991FE1E0F0E0EC0FFD1FE80F95
:1005A000F91F408151816DE070E080E090E060963D
:1005B0000FB6F894DEBF0FBECDBFDF91CF910C9484
:1005C00013020F931F93CF93DF938C01C0E0D0E011
:1005D00040E2BE01C8010E94FD012196C031D10553
:1005E000B9F7DF91CF911F910F9108958F929F924C
:1005F000AF92BF92CF92DF92EF92FF920F931F9331
:10060000CF93DF936C01EB017A0186179707B4F063
:100610008601D7FE02C00D5F1F4F159507951595F2
:1006200007955801053011051CF024E0A22EB12CCD
:10063000CC16DD06CCF4C0E0D0E01CC086E0849F80
:100640005001859FB00C112400E010E0B8016A0D44
:100650007B1D40E281E090E00E94FD010F5F1F4F93
:100660000430110599F7D4CFD7FD2396D595C795BA
:10067000D595C79586E08E9D40018F9D900C1124E5
:10068000CA15DB0554F4BE01680D791D44E081E014
:1006900090E00E94FD012196F3CFC430D10564F5AE
:1006A000000F111F000F111FC601801B910B59F085
:1006B0004FEF480F96E09E9DB0019F9D700D112455
:1006C0006C0F7D1F09C086E08E9DB0018F9D700D5F
:1006D00011246C0F7D1F40E281E090E0DF91CF910B
:1006E0001F910F91FF90EF90DF90CF90BF90AF9050
:1006F0009F908F900C94FD01DF91CF911F910F91EE
:10070000FF90EF90DF90CF90BF90AF909F908F9031
:10071000089561E080E00C94AE0168E280E00E9400
:10072000AE0168E280E00E94AE0168E280E00E94D3
:10073000AE0168E080E00E94AE016CE080E00E94C3
:10074000AE0164E080E00E94AE0162E080E00E94C1
:10075000AE010C948903FF920F931F93CF93DF9305
:10076000CDB7DEB7C054D1090FB6F894DEBF0FBEC7
:10077000CDBF80E4E4E8F0E0DE01119601900D9237
:100780008A95E1F760E080E00E94AE0160E081E0E0
:100790000E94AE018E010F5F1F4F60E4FF24F394AF
:1007A000F60E80E00E94AE01F80161918F0181E0B8
:1007B0000E94AE016F2D603889F7C05CDF4F0FB625
:1007C000F894DEBF0FBECDBFDF91CF911F910F9187
:1007D000FF900895892B11F0909801C0909A919AFA
:1007E0008AE090E00E949F0191988AE090E00C944A
:1007F0009F0197B18F71907E892B87B983E090E03C
:100800000E949F01369A83E090E00E949F0124B1EC
:1008100085B190E0982F8827820F911D3699FECFE1
:10082000089584E090E00E94F90380589140BC0153
:10083000990F880B990B0E94600820E030E04CE58E
:1008400053E40E94EC0820E030E040E85BE30E94C3
:10085000EC080E942808CB010895CF93DF93CDB711
:10086000DEB762970FB6F894DEBF0FBECDBF82E150
:10087000E4ECF0E0DE01119601900D928A95E1F72B
:1008800083E090E00E94F903FE01319620E030E021
:1008900041915191BA01615071092F5F3F4F861705
:1008A00097073CF04F5F5F4F4817590714F0C90195
:1008B00005C02930310561F780E090E062960FB6FF
:1008C000F894DEBF0FBECDBFDF91CF9108950F9397
:1008D0001F93CF93DF93EC019C01990F440B550BB1
:1008E0000FEF1FEF67E070E080E090E00E942E02C3
:1008F000BC01695F7F4F44E451E080E090E00E94DA
:10090000130284EF91E00E949F010E941104C81716
:10091000D9070CF057C080E090E00E94EA034EE453
:1009200051E067E070E080E090E00E9413020E94D6
:1009300011049C01990F440B550B0FEF1FEF67E05B
:1009400070E080E090E00E942E02BC01695F7F4F62
:1009500044E451E080E090E00E9413020E942D04E4
:100960000597A9F10E942D04069779F630C081E021
:1009700090E00E94EA034EE451E067E070E080E01E
:1009800090E00E9413020E9411049C01990F440BF5
:10099000550B0FEF1FEF67E070E080E090E00E94E2
:1009A0002E02BC01695F7F4F44E451E080E090E09B
:1009B0000E9413020E942D04059749F00E942D0405
:1009C000069729F00E9411048C179D0784F2DF918D
:1009D000CF911F910F9108958D3D910510F40C94C6
:1009E00067040895CF93DF93CDB7DEB7A6970FB610
:1009F000F894DEBF0FBECDBF82E1E6EDF0E0DE0190
:100A0000119601900D928A95E1F780E1E8EEF0E011
:100A1000DE01539601900D928A95E1F78FE187BB35
:100A20008FE784BB8FEF81BB88E08BBB0E948D0377
:100A300084EF91E00E949F010E94890341E251E00E
:100A400060E070E080E090E00E94130240E351E03B
:100A500060E070E081E090E00E94130284EF91E09A
:100A60000E949F010E94890311BC11BC80E487B9D8
:100A700086E886B9369A3699FECF84B185B11FBC17
:100A800085E08EBD84E089BF8CE791EE9DBD8CBD75
:100A900000E010E0C8010E94E90A8F3FA9F4E1E0FC
:100AA000F0E0EC0FFD1FE00FF11F6081C8010E9414
:100AB000F10AE3E1F0E0EC0FFD1FE00FF11F6081B0
:100AC000C80101960E94F10A0E5F1F4F0031110507
:100AD00009F780E290E00E94E90AE82EF12C8830C4
:100AE00018F033E0E32EF12CC7010E94B602570143
:100AF000AA0CBB1CC5010E94E90A182F87FF07C07A
:100B000081E090E090938D0180938C0104C010925D
:100B10008D0110928C0180918C0190918D010E9429
:100B2000AA021F77C12ED12CC6010E9430010E945B
:100B30006F02C50101960E94E90A282F30E08C3D22
:100B400020F4C9010E94EC0414C08EE690E00E94DB
:100B5000670481E090E00E94E10240E451E060E03F
:100B600070E080E090E00E94130288EE93E00E9423
:100B70009F017894C7010E94B602212C312C412C90
:100B8000512C3201812C912C54010E942D048C0196
:100B9000C114D10499F0029769F491E0C91AD108FF
:100BA000C6010E9430010E946F0282E090E00E9424
:100BB0009F0104C08FE7C816D104F1F1013011057F
:100BC000D9F59FEFC91AD90AC6010E9430010E94C7
:100BD0006F0282E090E00E949F012EC00430110558
:100BE00009F05DC080E090E00E94EA034EE451E02D
:100BF00067E070E080E090E00E9413020E94110420
:100C00009C01990F440B550B0FEF1FEF67E070E04D
:100C100080E090E00E942E02BC01695F7F4F44E4B7
:100C200051E080E090E00E94130284E690E00E9490
:100C30009F010E942D048C010E94110418161906B0
:100C40006CF22DC00330110579F581E090E00E942F
:100C5000EA034EE451E067E070E080E090E00E943B
:100C600013020E9411049C01990F440B550B0FEFC6
:100C70001FEF67E070E080E090E00E942E02BC0170
:100C8000695F7F4F44E451E080E090E00E941302EE
:100C900084E690E00E949F010E942D048C010E9436
:100CA00011048C3D910574F205301105C1F487E003
:100CB000E816F1040CF0E7C09FEFE91AF90AC70142
:100CC0000E94B60247E451E060E070E081E090E00D
:100CD0000E9413020E942D04892BE1F7D4C0E11475
:100CE000F104B1F00630110599F481E0E81AF10839
:100CF000C7010E94B60247E451E060E070E081E085
:100D000090E00E9413020E942D04892BE1F7BBC0E2
:100D10000830110509F054C0E199FECF6E2D80E234
:100D200090E00E94F10A45E551E060E070E081E06A
:100D300090E00E9413028701000F111FC8010E945A
:100D4000E90AC82E87FF09C081E090E090938D01E9
:100D500080938C010E94A20208C010928D01109213
:100D60008C0180E090E00E94AA028C2D8F77C82E23
:100D7000D12CC6010E9430010E946F02C801019669
:100D80000E94E90A8D3D20F490E00E94EC0408C026
:100D900041E451E067E070E080E090E00E941302DF
:100DA000C7010E94B60247E451E060E070E081E0D4
:100DB00090E00E9413020E942D04892BE1F763C08A
:100DC00007301105D9F5C7010E94B60281E090E015
:100DD0000E94E102E199FECF8701000F111F80916F
:100DE0008C016C2D90E8899F60191124C8010E9424
:100DF000F10AE199FECF0E941104682FC801019603
:100E00000E94F10AE199FECF6E2D80E290E00E94EF
:100E1000F10A81E090E00E94E10240E651E060E0EA
:100E200070E081E090E00E94130288EE93E00E945F
:100E30009F0181E090E00E94E10225C00930110588
:100E400011F50E942D04892BE1F780918C0190917E
:100E50008D01892B51F010928D0110928C0180E050
:100E600090E00E94AA02C09A09C081E090E09093AD
:100E70008D0180938C010E94A202C098C6010E943D
:100E800030010E946F0280E090E00E94F903092E79
:100E9000000CAA0BBB0B880E991EAA1EBB1E81E07C
:100EA00090E00E94F903092E000CAA0BBB0B480E20
:100EB000591E6A1E7B1E81E12816310424F48FEF2F
:100EC000281A380A62CE81E090E00E94F903419727
:100ED0000CF443C0C501B401640D751D861D971D3A
:100EE0000E94600820E030E040E251E40E94EC08FB
:100EF0006BA37CA38DA39EA3C501B40164197509DE
:100F0000860997090E9460089B01AC016BA17CA136
:100F10008DA19EA10E94B6070E9428084B015C018A
:100F2000CB010A978F3B9105A8F448E651E060E0B9
:100F300070E081E090E00E9413029401990C440B50
:100F4000550B01E010E067E070E081E090E00E9466
:100F50002E0213CE43E751E002C040E851E060E0CA
:100F600070E081E090E00E94130207CE0E94CA0761
:100F70000C94B2080E94AB0858F00E94A40840F0FC
:100F800029F45F3F29F00C949B0851110C94E6085A
:100F90000C94A1080E94C30868F39923B1F3552368
:100FA00091F3951B550BBB27AA276217730784077C
:100FB00038F09F5F5F4F220F331F441FAA1FA9F312
:100FC00035D00E2E3AF0E0E832D091505040E69500
:100FD000001CCAF72BD0FE2F29D0660F771F881F61
:100FE000BB1F261737074807AB07B0E809F0BB0B54
:100FF000802DBF01FF2793585F4F3AF09E3F510568
:1010000078F00C949B080C94E6085F3FE4F3983E5C
:10101000D4F3869577956795B795F7959F5FC9F750
:10102000880F911D9695879597F90895E1E0660FD1
:10103000771F881FBB1F621773078407BA0720F04A
:10104000621B730B840BBA0BEE1F88F7E0950895B3
:101050000E942F086894B1110C94E60808950E942C
:10106000CB0888F09F5798F0B92F9927B751B0F067
:10107000E1F0660F771F881F991F1AF0BA95C9F71C
:1010800014C0B13091F00E94E508B1E008950C94CD
:10109000E508672F782F8827B85F39F0B93FCCF380
:1010A000869577956795B395D9F73EF49095809599
:1010B000709561957F4F8F4F9F4F0895E89409C0B9
:1010C00097FB3EF490958095709561957F4F8F4F7B
:1010D0009F4F9923A9F0F92F96E9BB279395F69591
:1010E000879577956795B795F111F8CFFAF4BB0F0F
:1010F00011F460FF1BC06F5F7F4F8F4F9F4F16C073
:10110000882311F096E911C0772321F09EE8872FFC
:10111000762F05C0662371F096E8862F70E060E0B8
:101120002AF09A95660F771F881FDAF7880F969531
:10113000879597F9089597F99F6780E870E060E0D8
:1011400008959FEF80EC089500240A941616170660
:1011500018060906089500240A94121613061406A8
:1011600005060895092E0394000C11F4882352F00B
:10117000BB0F40F4BF2B11F460FF04C06F5F7F4FC3
:101180008F4F9F4F089557FD9058440F551F59F0AA
:101190005F3F71F04795880F97FB991F61F09F3F64
:1011A00079F087950895121613061406551FF2CF8D
:1011B0004695F1DF08C0161617061806991FF1CFDD
:1011C00086957105610508940895E894BB27662704
:1011D0007727CB0197F908950E94FF080C94B20875
:1011E0000E94A40838F00E94AB0820F0952311F06B
:1011F0000C949B080C94A10811240C94E6080E94FE
:10120000C30870F3959FC1F3950F50E0551F629F7F
:10121000F001729FBB27F00DB11D639FAA27F00D4F
:10122000B11DAA1F649F6627B00DA11D661F829F76
:101230002227B00DA11D621F739FB00DA11D621F5B
:10124000839FA00D611D221F749F3327A00D611D78
:10125000231F849F600D211D822F762F6A2F11245A
:101260009F5750409AF0F1F088234AF0EE0FFF1F8D
:10127000BB1F661F771F881F91505040A9F79E3FE4
:10128000510580F00C949B080C94E6085F3FE4F352
:10129000983ED4F3869577956795B795F795E7953A
:1012A0009F5FC1F7FE2B880F911D9695879597F943
:1012B0000895052E97FB1EF400940E94700957FDB7
:1012C00007D00E94800907FC03D04EF40C947009EB
:1012D00050954095309521953F4F4F4F5F4F089562
:1012E00090958095709561957F4F8F4F9F4F089592
:1012F000B7FF0C94A2090E94A209821B930B0895C8
:10130000A1E21A2EAA1BBB1BFD010DC0AA1FBB1F09
:10131000EE1FFF1FA217B307E407F50720F0A21B7B
:10132000B30BE40BF50B661F771F881F991F1A94E8
:1013300069F760957095809590959B01AC01BD0112
:10134000CF0108950E94AD09A59F900DB49F900D07
:10135000A49F800D911D11240895A29FB001B39FF9
:10136000C001A39F700D811D1124911DB29F700DAE
:10137000811D1124911D0895CF93DF938230910533
:1013800010F482E090E0E0919401F091950120E06A
:1013900030E0C0E0D0E0309711F140815181481732
:1013A0005907C0F04817590761F48281938120974B
:1013B00019F09B838A832BC09093950180939401AD
:1013C00026C02115310519F04217530718F49A0168
:1013D000BE01DF01EF010280F381E02DDCCF21159A
:1013E000310509F1281B390B2430310590F4129690
:1013F0008D919C9113976115710521F0FB019383E9
:10140000828304C09093950180939401FD013296EC
:1014100044C0FD01E20FF31F8193919322503109E3
:101420002D933C933AC02091920130919301232B4C
:1014300041F4209162003091630030939301209336
:10144000920120916000309161002115310541F435
:101450002DB73EB74091640050916500241B350BB9
:10146000E0919201F0919301E217F307A0F42E1B93
:101470003F0B2817390778F0AC014E5F5F4F2417F8
:10148000350748F04E0F5F1F509393014093920130
:101490008193919302C0E0E0F0E0CF01DF91CF9122
:1014A00008950F931F93CF93DF93009709F48CC097
:1014B000FC013297138212820091940110919501E0
:1014C0000115110581F420813181820F931F209134
:1014D0009201309193012817390779F5F093930120
:1014E000E093920171C0D80140E050E0AE17BF0711
:1014F00050F412962D913C911397AD0121153105B1
:1015000009F1D901F3CF9D01DA0133832283608190
:101510007181860F971F8217930769F4EC01288168
:101520003981260F371F2E5F3F4F318320838A81F9
:101530009B8193838283452B29F4F0939501E0935B
:10154000940142C01396FC93EE931297ED014991DA
:1015500059919E01240F351FE217F30771F4808122
:101560009181840F951F029611969C938E93828190
:10157000938113969C938E931297E0E0F0E0D8014C
:1015800012968D919C911397009719F0F8018C0198
:10159000F6CF8D919C9198012E5F3F4F820F931F44
:1015A00020919201309193012817390769F43097FF
:1015B00029F4109295011092940102C013821282B4
:1015C0001093930100939201DF91CF911F910F919E
:1015D0000895E199FECF9FBB8EBBE09A99278DB30A
:1015E0000895262FE199FECF9FBB8EBB2DBB0FB672
:1015F000F894E29AE19A0FBE01960895F894FFCF0D
:1016000000009601200005000A0019003200640065
:10161000C80090010101050109010D011101150129
:1016200019011D0100001010101000000000181812
:101630001818000000001C1C1C1C000000001E1ECE
:101640001E1E000000001F1F1F1F00000000040ED0
:1016500004000000040E0400040E04000001021245
:101660000A040000120016001D002B004A0084002E
:10167000EB008C01F101410021000C000800060084
:101680000400030002000100AC0029004B006E00C2
:1016900058003700210011007548002B4C002D2DFB
:1016A0000038306D0034306D0033306D0032306DF5
:1016B0000031376D0031356D0031326D0031306DE4
:1016C0000020444B37494820416E74656E6E6100BE
:1016D0002054756E6572205665722E20322E3000B1
:1016E000202D782D70460020202020202020202032
:1016F0002020202000526563616C6C696E672E00AB
:1017000053746F7265642E005357523A20313A2059
:101710002020005357523A20756E6465662E2000D3
:0C1720004E4F205349472120202000009C
:00000001FF
